{
  "contractName": "Faucet",
  "abi": [
    {
      "inputs": [
        {
          "internalType": "address",
          "name": "",
          "type": "address"
        }
      ],
      "name": "funders",
      "outputs": [
        {
          "internalType": "bool",
          "name": "",
          "type": "bool"
        }
      ],
      "stateMutability": "view",
      "type": "function",
      "constant": true
    },
    {
      "inputs": [
        {
          "internalType": "uint256",
          "name": "",
          "type": "uint256"
        }
      ],
      "name": "lutFunders",
      "outputs": [
        {
          "internalType": "address",
          "name": "",
          "type": "address"
        }
      ],
      "stateMutability": "view",
      "type": "function",
      "constant": true
    },
    {
      "inputs": [],
      "name": "numbersOfFunders",
      "outputs": [
        {
          "internalType": "uint256",
          "name": "",
          "type": "uint256"
        }
      ],
      "stateMutability": "view",
      "type": "function",
      "constant": true
    },
    {
      "inputs": [],
      "name": "owner",
      "outputs": [
        {
          "internalType": "address",
          "name": "",
          "type": "address"
        }
      ],
      "stateMutability": "view",
      "type": "function",
      "constant": true
    },
    {
      "inputs": [],
      "name": "test2",
      "outputs": [
        {
          "internalType": "uint256",
          "name": "",
          "type": "uint256"
        }
      ],
      "stateMutability": "pure",
      "type": "function",
      "constant": true
    },
    {
      "inputs": [],
      "name": "testNum",
      "outputs": [
        {
          "internalType": "uint256",
          "name": "",
          "type": "uint256"
        }
      ],
      "stateMutability": "view",
      "type": "function",
      "constant": true
    },
    {
      "stateMutability": "payable",
      "type": "receive",
      "payable": true
    },
    {
      "inputs": [],
      "name": "test1",
      "outputs": [],
      "stateMutability": "nonpayable",
      "type": "function"
    },
    {
      "inputs": [],
      "name": "emitLog",
      "outputs": [
        {
          "internalType": "bytes32",
          "name": "",
          "type": "bytes32"
        }
      ],
      "stateMutability": "pure",
      "type": "function",
      "constant": true
    },
    {
      "inputs": [],
      "name": "addFunds",
      "outputs": [],
      "stateMutability": "payable",
      "type": "function",
      "payable": true
    },
    {
      "inputs": [
        {
          "internalType": "uint256",
          "name": "withdrawAmount",
          "type": "uint256"
        }
      ],
      "name": "withdraw",
      "outputs": [],
      "stateMutability": "nonpayable",
      "type": "function"
    },
    {
      "inputs": [],
      "name": "getAllFunders",
      "outputs": [
        {
          "internalType": "address[]",
          "name": "",
          "type": "address[]"
        }
      ],
      "stateMutability": "view",
      "type": "function",
      "constant": true
    },
    {
      "inputs": [
        {
          "internalType": "uint256",
          "name": "index",
          "type": "uint256"
        }
      ],
      "name": "getFunderAtIndex",
      "outputs": [
        {
          "internalType": "address",
          "name": "",
          "type": "address"
        }
      ],
      "stateMutability": "view",
      "type": "function",
      "constant": true
    }
  ],
  "bytecode": "0x608060405234801561001057600080fd5b50336000806101000a81548173ffffffffffffffffffffffffffffffffffffffff021916908373ffffffffffffffffffffffffffffffffffffffff1602179055506103e8600181905550610b77806100696000396000f3fe6080604052600436106100ab5760003560e01c80638da5cb5b116100645780638da5cb5b146101c7578063a26759cb146101f2578063ae28f1ed146101fc578063c218deca14610227578063f42c13bf14610264578063fdebe35e1461028f576100b2565b8063031b3677146100b75780631f8947ea146100f45780632e1a7d4d1461013157806366e41cb71461015a5780636b59084d146101855780636fbbb55d1461019c576100b2565b366100b257005b600080fd5b3480156100c357600080fd5b506100de60048036038101906100d99190610760565b6102ba565b6040516100eb91906108f6565b60405180910390f35b34801561010057600080fd5b5061011b60048036038101906101169190610789565b6102da565b60405161012891906108b9565b60405180910390f35b34801561013d57600080fd5b5061015860048036038101906101539190610789565b61030d565b005b34801561016657600080fd5b5061016f6103a4565b60405161017c919061096c565b60405180910390f35b34801561019157600080fd5b5061019a6103ad565b005b3480156101a857600080fd5b506101b161043d565b6040516101be91906108d4565b60405180910390f35b3480156101d357600080fd5b506101dc610583565b6040516101e991906108b9565b60405180910390f35b6101fa6105a7565b005b34801561020857600080fd5b506102116106c5565b60405161021e919061096c565b60405180910390f35b34801561023357600080fd5b5061024e60048036038101906102499190610789565b6106cb565b60405161025b91906108b9565b60405180910390f35b34801561027057600080fd5b50610279610708565b6040516102869190610911565b60405180910390f35b34801561029b57600080fd5b506102a4610730565b6040516102b1919061096c565b60405180910390f35b60036020528060005260406000206000915054906101000a900460ff1681565b60046020528060005260406000206000915054906101000a900473ffffffffffffffffffffffffffffffffffffffff1681565b80670de0b6b3a7640000811115610359576040517f08c379a00000000000000000000000000000000000000000000000000000000081526004016103509061092c565b60405180910390fd5b3373ffffffffffffffffffffffffffffffffffffffff166108fc839081150290604051600060405180830381858888f1935050505015801561039f573d6000803e3d6000fd5b505050565b60006064905090565b60008054906101000a900473ffffffffffffffffffffffffffffffffffffffff1673ffffffffffffffffffffffffffffffffffffffff163373ffffffffffffffffffffffffffffffffffffffff161461043b576040517f08c379a00000000000000000000000000000000000000000000000000000000081526004016104329061094c565b60405180910390fd5b565b6060600060025467ffffffffffffffff811115610483577f4e487b7100000000000000000000000000000000000000000000000000000000600052604160045260246000fd5b6040519080825280602002602001820160405280156104b15781602001602082028036833780820191505090505b50905060005b60025481101561057b576004600082815260200190815260200160002060009054906101000a900473ffffffffffffffffffffffffffffffffffffffff1682828151811061052e577f4e487b7100000000000000000000000000000000000000000000000000000000600052603260045260246000fd5b602002602001019073ffffffffffffffffffffffffffffffffffffffff16908173ffffffffffffffffffffffffffffffffffffffff1681525050808061057390610a23565b9150506104b7565b508091505090565b60008054906101000a900473ffffffffffffffffffffffffffffffffffffffff1681565b6000339050600360008273ffffffffffffffffffffffffffffffffffffffff1673ffffffffffffffffffffffffffffffffffffffff16815260200190815260200160002060009054906101000a900460ff166106c2576001600360008373ffffffffffffffffffffffffffffffffffffffff1673ffffffffffffffffffffffffffffffffffffffff16815260200190815260200160002060006101000a81548160ff0219169083151502179055508060046000600254815260200190815260200160002060006101000a81548173ffffffffffffffffffffffffffffffffffffffff021916908373ffffffffffffffffffffffffffffffffffffffff160217905550600260008154809291906106bc90610a23565b91905055505b50565b60015481565b60006004600083815260200190815260200160002060009054906101000a900473ffffffffffffffffffffffffffffffffffffffff169050919050565b60007f48656c6c6f20576f726c64000000000000000000000000000000000000000000905090565b60025481565b60008135905061074581610b13565b92915050565b60008135905061075a81610b2a565b92915050565b60006020828403121561077257600080fd5b600061078084828501610736565b91505092915050565b60006020828403121561079b57600080fd5b60006107a98482850161074b565b91505092915050565b60006107be83836107ca565b60208301905092915050565b6107d3816109d1565b82525050565b6107e2816109d1565b82525050565b60006107f382610997565b6107fd81856109af565b935061080883610987565b8060005b8381101561083957815161082088826107b2565b975061082b836109a2565b92505060018101905061080c565b5085935050505092915050565b61084f816109e3565b82525050565b61085e816109ef565b82525050565b6000610871601f836109c0565b915061087c82610a9b565b602082019050919050565b60006108946021836109c0565b915061089f82610ac4565b604082019050919050565b6108b381610a19565b82525050565b60006020820190506108ce60008301846107d9565b92915050565b600060208201905081810360008301526108ee81846107e8565b905092915050565b600060208201905061090b6000830184610846565b92915050565b60006020820190506109266000830184610855565b92915050565b6000602082019050818103600083015261094581610864565b9050919050565b6000602082019050818103600083015261096581610887565b9050919050565b600060208201905061098160008301846108aa565b92915050565b6000819050602082019050919050565b600081519050919050565b6000602082019050919050565b600082825260208201905092915050565b600082825260208201905092915050565b60006109dc826109f9565b9050919050565b60008115159050919050565b6000819050919050565b600073ffffffffffffffffffffffffffffffffffffffff82169050919050565b6000819050919050565b6000610a2e82610a19565b91507fffffffffffffffffffffffffffffffffffffffffffffffffffffffffffffffff821415610a6157610a60610a6c565b5b600182019050919050565b7f4e487b7100000000000000000000000000000000000000000000000000000000600052601160045260246000fd5b7f63616e6e6f74207769746864726177206d6f7265207468656e20312045544800600082015250565b7f6f6e6c79206f776e65722063616e2063616c6c20746869732066756e6374696f60008201527f6e00000000000000000000000000000000000000000000000000000000000000602082015250565b610b1c816109d1565b8114610b2757600080fd5b50565b610b3381610a19565b8114610b3e57600080fd5b5056fea26469706673582212205fa7e81f07b476e6cd3fd26c72e31c99c7adc5f7d79931e7426e8800ed8c034364736f6c63430008040033",
  "immutableReferences": {},
  "source": "// SPDX-License-Identifier: MIT\npragma solidity >=0.4.22 <0.9.0;\n\nimport \"./Owned.sol\";\nimport \"./Logger.sol\";\nimport \"./IFaucet.sol\";\n\ncontract Faucet is Owned, Logger, IFaucet {\n    // // Storage Variables\n    // uint public funds = 1000;\n    // int public counter = -10;\n    // uint32 public test = 4294967295;\n    uint256 public numbersOfFunders; //default value is zero 0\n    mapping(address => bool) public funders;\n    mapping(uint256 => address) public lutFunders;\n\n    function test1() external onlyOwner {}\n\n    modifier limitWithdraw(uint256 withdrawAmount) {\n        require(\n            withdrawAmount <= 1000000000000000000,\n            \"cannot withdraw more then 1 ETH\"\n        );\n        _; // this is mentions the functions body\n    }\n\n    // https://www.udemy.com/course/solidity-ethereum-in-react-next-js-the-complete-guide/learn/lecture/28624014#overview\n    // https://www.udemy.com/course/solidity-ethereum-in-react-next-js-the-complete-guide/learn/lecture/28624016#overview\n    // this is a special function\n    // it's called when you make a tx that doesn't specify functiion name to call\n\n    // External function are part of the contract interface\n    // Which means they can be called via contracts and other txs\n\n    receive() external payable {} // receive is a special function\n\n    function emitLog() public pure override returns (bytes32) {\n        return \"Hello World\";\n    }\n\n    function addFunds() external payable override {\n        // instance.addFunds({form:accounts[0],value:3000000000000000000})\n        address funder = msg.sender;\n        if (!funders[funder]) {\n            funders[funder] = true;\n            lutFunders[numbersOfFunders] = funder;\n            numbersOfFunders++;\n        }\n    }\n\n    function withdraw(uint256 withdrawAmount)\n        external\n        override\n        limitWithdraw(withdrawAmount)\n    {\n        // instance.withdraw(\"1000000000000000000\",{from:accounts[0]})\n        // https://www.udemy.com/course/solidity-ethereum-in-react-next-js-the-complete-guide/learn/lecture/28624122#learning-tools\n        payable(msg.sender).transfer(withdrawAmount);\n    }\n\n    function getAllFunders() external view returns (address[] memory) {\n        address[] memory funder = new address[](numbersOfFunders);\n        for (uint256 i = 0; i < numbersOfFunders; i++) {\n            funder[i] = lutFunders[i];\n        }\n        return funder;\n    }\n\n    function getFunderAtIndex(uint256 index) external view returns (address) {\n        return lutFunders[index];\n    }\n}\n",
  "sourcePath": "/home/lenovo/Documents/web3/web3-with-ganache/contracts/FaucetContract.sol",
  "compiler": {
    "name": "solc",
    "version": "0.8.4+commit.c7e474f2.Emscripten.clang"
  },
  "schemaVersion": "3.4.13",
  "updatedAt": "2023-04-20T12:42:37.937Z",
  "networkType": "ethereum",
  "devdoc": {
    "kind": "dev",
    "methods": {},
    "version": 1
  },
  "userdoc": {
    "kind": "user",
    "methods": {},
    "version": 1
  }
}